{
  "_format": "hh-sol-artifact-1",
  "contractName": "RugKing",
  "sourceName": "contracts/RugKing.sol",
  "abi": [
    {
      "inputs": [
        {
          "internalType": "contract IBEP20",
          "name": "_pull",
          "type": "address"
        },
        {
          "internalType": "uint256",
          "name": "_pullPerSecond",
          "type": "uint256"
        },
        {
          "internalType": "uint32",
          "name": "_startTime",
          "type": "uint32"
        }
      ],
      "stateMutability": "nonpayable",
      "type": "constructor"
    },
    {
      "anonymous": false,
      "inputs": [
        {
          "indexed": true,
          "internalType": "address",
          "name": "user",
          "type": "address"
        },
        {
          "indexed": true,
          "internalType": "uint256",
          "name": "pid",
          "type": "uint256"
        },
        {
          "indexed": false,
          "internalType": "uint256",
          "name": "amount",
          "type": "uint256"
        }
      ],
      "name": "Deposit",
      "type": "event"
    },
    {
      "anonymous": false,
      "inputs": [
        {
          "indexed": true,
          "internalType": "address",
          "name": "user",
          "type": "address"
        },
        {
          "indexed": true,
          "internalType": "uint256",
          "name": "pid",
          "type": "uint256"
        },
        {
          "indexed": false,
          "internalType": "uint256",
          "name": "amount",
          "type": "uint256"
        }
      ],
      "name": "EmergencyWithdraw",
      "type": "event"
    },
    {
      "anonymous": false,
      "inputs": [
        {
          "indexed": true,
          "internalType": "address",
          "name": "previousOwner",
          "type": "address"
        },
        {
          "indexed": true,
          "internalType": "address",
          "name": "newOwner",
          "type": "address"
        }
      ],
      "name": "OwnershipTransferred",
      "type": "event"
    },
    {
      "anonymous": false,
      "inputs": [
        {
          "indexed": true,
          "internalType": "address",
          "name": "user",
          "type": "address"
        },
        {
          "indexed": true,
          "internalType": "uint256",
          "name": "pid",
          "type": "uint256"
        },
        {
          "indexed": false,
          "internalType": "uint256",
          "name": "amount",
          "type": "uint256"
        }
      ],
      "name": "Withdraw",
      "type": "event"
    },
    {
      "inputs": [
        {
          "internalType": "uint16",
          "name": "_allocPoint",
          "type": "uint16"
        },
        {
          "internalType": "contract IBEP20",
          "name": "_lpToken",
          "type": "address"
        },
        {
          "internalType": "bool",
          "name": "_withUpdate",
          "type": "bool"
        }
      ],
      "name": "add",
      "outputs": [],
      "stateMutability": "nonpayable",
      "type": "function"
    },
    {
      "inputs": [
        {
          "internalType": "uint32",
          "name": "addSeconds",
          "type": "uint32"
        }
      ],
      "name": "changeEndTime",
      "outputs": [],
      "stateMutability": "nonpayable",
      "type": "function"
    },
    {
      "inputs": [
        {
          "internalType": "uint256",
          "name": "_pid",
          "type": "uint256"
        },
        {
          "internalType": "uint256",
          "name": "_amount",
          "type": "uint256"
        }
      ],
      "name": "deposit",
      "outputs": [],
      "stateMutability": "nonpayable",
      "type": "function"
    },
    {
      "inputs": [
        {
          "internalType": "uint256",
          "name": "_pid",
          "type": "uint256"
        }
      ],
      "name": "emergencyWithdraw",
      "outputs": [],
      "stateMutability": "nonpayable",
      "type": "function"
    },
    {
      "inputs": [],
      "name": "endTime",
      "outputs": [
        {
          "internalType": "uint32",
          "name": "",
          "type": "uint32"
        }
      ],
      "stateMutability": "view",
      "type": "function"
    },
    {
      "inputs": [
        {
          "internalType": "uint256",
          "name": "_from",
          "type": "uint256"
        },
        {
          "internalType": "uint256",
          "name": "_to",
          "type": "uint256"
        }
      ],
      "name": "getMultiplier",
      "outputs": [
        {
          "internalType": "uint256",
          "name": "",
          "type": "uint256"
        }
      ],
      "stateMutability": "view",
      "type": "function"
    },
    {
      "inputs": [],
      "name": "massUpdatePools",
      "outputs": [],
      "stateMutability": "nonpayable",
      "type": "function"
    },
    {
      "inputs": [],
      "name": "owner",
      "outputs": [
        {
          "internalType": "address",
          "name": "",
          "type": "address"
        }
      ],
      "stateMutability": "view",
      "type": "function"
    },
    {
      "inputs": [
        {
          "internalType": "uint256",
          "name": "_pid",
          "type": "uint256"
        },
        {
          "internalType": "address",
          "name": "_user",
          "type": "address"
        }
      ],
      "name": "pendingPULL",
      "outputs": [
        {
          "internalType": "uint256",
          "name": "",
          "type": "uint256"
        }
      ],
      "stateMutability": "view",
      "type": "function"
    },
    {
      "inputs": [
        {
          "internalType": "uint256",
          "name": "",
          "type": "uint256"
        }
      ],
      "name": "poolInfo",
      "outputs": [
        {
          "internalType": "contract IBEP20",
          "name": "lpToken",
          "type": "address"
        },
        {
          "internalType": "uint256",
          "name": "lpTokenTotalAmount",
          "type": "uint256"
        },
        {
          "internalType": "uint256",
          "name": "accPULLPerShare",
          "type": "uint256"
        },
        {
          "internalType": "uint32",
          "name": "lastRewardTime",
          "type": "uint32"
        },
        {
          "internalType": "uint16",
          "name": "allocPoint",
          "type": "uint16"
        }
      ],
      "stateMutability": "view",
      "type": "function"
    },
    {
      "inputs": [],
      "name": "poolLength",
      "outputs": [
        {
          "internalType": "uint256",
          "name": "",
          "type": "uint256"
        }
      ],
      "stateMutability": "view",
      "type": "function"
    },
    {
      "inputs": [],
      "name": "pull",
      "outputs": [
        {
          "internalType": "contract IBEP20",
          "name": "",
          "type": "address"
        }
      ],
      "stateMutability": "view",
      "type": "function"
    },
    {
      "inputs": [],
      "name": "pullPerSecond",
      "outputs": [
        {
          "internalType": "uint256",
          "name": "",
          "type": "uint256"
        }
      ],
      "stateMutability": "view",
      "type": "function"
    },
    {
      "inputs": [],
      "name": "renounceOwnership",
      "outputs": [],
      "stateMutability": "nonpayable",
      "type": "function"
    },
    {
      "inputs": [
        {
          "internalType": "uint256",
          "name": "_pid",
          "type": "uint256"
        },
        {
          "internalType": "uint16",
          "name": "_allocPoint",
          "type": "uint16"
        },
        {
          "internalType": "bool",
          "name": "_withUpdate",
          "type": "bool"
        }
      ],
      "name": "set",
      "outputs": [],
      "stateMutability": "nonpayable",
      "type": "function"
    },
    {
      "inputs": [
        {
          "internalType": "uint256",
          "name": "_pullPerSecond",
          "type": "uint256"
        },
        {
          "internalType": "bool",
          "name": "_withUpdate",
          "type": "bool"
        }
      ],
      "name": "setPULLPerSecond",
      "outputs": [],
      "stateMutability": "nonpayable",
      "type": "function"
    },
    {
      "inputs": [],
      "name": "startTime",
      "outputs": [
        {
          "internalType": "uint32",
          "name": "",
          "type": "uint32"
        }
      ],
      "stateMutability": "view",
      "type": "function"
    },
    {
      "inputs": [],
      "name": "totalAllocPoint",
      "outputs": [
        {
          "internalType": "uint256",
          "name": "",
          "type": "uint256"
        }
      ],
      "stateMutability": "view",
      "type": "function"
    },
    {
      "inputs": [
        {
          "internalType": "address",
          "name": "newOwner",
          "type": "address"
        }
      ],
      "name": "transferOwnership",
      "outputs": [],
      "stateMutability": "nonpayable",
      "type": "function"
    },
    {
      "inputs": [
        {
          "internalType": "uint256",
          "name": "_pid",
          "type": "uint256"
        }
      ],
      "name": "updatePool",
      "outputs": [],
      "stateMutability": "nonpayable",
      "type": "function"
    },
    {
      "inputs": [
        {
          "internalType": "uint256",
          "name": "",
          "type": "uint256"
        },
        {
          "internalType": "address",
          "name": "",
          "type": "address"
        }
      ],
      "name": "userInfo",
      "outputs": [
        {
          "internalType": "uint256",
          "name": "amount",
          "type": "uint256"
        },
        {
          "internalType": "uint256",
          "name": "rewardDebt",
          "type": "uint256"
        },
        {
          "internalType": "uint256",
          "name": "remainingPULLReward",
          "type": "uint256"
        }
      ],
      "stateMutability": "view",
      "type": "function"
    },
    {
      "inputs": [
        {
          "internalType": "uint256",
          "name": "_pid",
          "type": "uint256"
        },
        {
          "internalType": "uint256",
          "name": "_amount",
          "type": "uint256"
        }
      ],
      "name": "withdraw",
      "outputs": [],
      "stateMutability": "nonpayable",
      "type": "function"
    }
  ],
  "bytecode": "0x60c0604052600060045534801561001557600080fd5b506040516119ce3803806119ce8339818101604052606081101561003857600080fd5b508051602082015160409092015190919060006100536100e5565b600080546001600160a01b0319166001600160a01b0383169081178255604051929350917f8be0079c531659141344cd1fd0a4f28419497f9722a3daafe3b4186f6b6457e0908290a35060609290921b6001600160601b03191660805260015560e081901b6001600160e01b03191660a0526005805463ffffffff90921663ffffffff199092169190911790556100e9565b3390565b60805160601c60a05160e01c61189461013a6000398061093f528061097452806109a152806109e35280610adb5280610b0852508061049752806111d9528061129552806112db52506118946000f3fe608060405234801561001057600080fd5b50600436106101425760003560e01c8063715018a6116100b857806398ec8da61161007c57806398ec8da614610323578063bbe29fb01461035b578063cf42947b14610387578063d1c1b4a8146103aa578063e2bbb158146103d9578063f2fde38b146103fc57610142565b8063715018a61461029e57806378e97925146102a65780638da5cb5b146102ae5780638dbb1e3a146102b657806393f1a40b146102d957610142565b8063329eb8391161010a578063329eb839146101ee57806342b9bcc914610212578063441a3e701461023957806351eb05a61461025c5780635312ea8e14610279578063630b5ba11461029657610142565b8063081e3eda146101475780631526fe271461016157806317caf6f1146101bd5780631a4511a5146101c55780633197cbb6146101cd575b600080fd5b61014f610422565b60408051918252519081900360200190f35b61017e6004803603602081101561017757600080fd5b5035610428565b604080516001600160a01b03909616865260208601949094528484019290925263ffffffff16606084015261ffff166080830152519081900360a00190f35b61014f61047d565b61014f610483565b6101d5610489565b6040805163ffffffff9092168252519081900360200190f35b6101f6610495565b604080516001600160a01b039092168252519081900360200190f35b6102376004803603604081101561022857600080fd5b508035906020013515156104b9565b005b6102376004803603604081101561024f57600080fd5b5080359060200135610525565b6102376004803603602081101561027257600080fd5b50356106a3565b6102376004803603602081101561028f57600080fd5b50356107a8565b610237610878565b61023761089b565b6101d561093d565b6101f6610961565b61014f600480360360408110156102cc57600080fd5b5080359060200135610970565b610305600480360360408110156102ef57600080fd5b50803590602001356001600160a01b0316610a45565b60408051938452602084019290925282820152519081900360600190f35b6102376004803603606081101561033957600080fd5b5061ffff813516906001600160a01b0360208201351690604001351515610a71565b61014f6004803603604081101561037157600080fd5b50803590602001356001600160a01b0316610c80565b6102376004803603602081101561039d57600080fd5b503563ffffffff16610da8565b610237600480360360608110156103c057600080fd5b5080359061ffff60208201351690604001351515610e21565b610237600480360360408110156103ef57600080fd5b5080359060200135610f0b565b6102376004803603602081101561041257600080fd5b50356001600160a01b0316611031565b60025490565b6002818154811061043557fe5b600091825260209091206004909102018054600182015460028301546003909301546001600160a01b039092169350919063ffffffff811690640100000000900461ffff1685565b60045481565b60015481565b60055463ffffffff1681565b7f000000000000000000000000000000000000000000000000000000000000000081565b6104c1611092565b6000546001600160a01b03908116911614610511576040805162461bcd60e51b8152602060048201819052602482015260008051602061183f833981519152604482015290519081900360640190fd5b801561051f5761051f610878565b50600155565b60006002838154811061053457fe5b6000918252602080832086845260038252604080852033865290925292208054600490920290920192508311156105ab576040805162461bcd60e51b815260206004820152601660248201527505275674b696e673a206e6f7420656e6f756768204c560541b604482015290519081900360640190fd5b6105b4846106a3565b60006105fc82600201546105f684600101546105f064e8d4a510006105ea8960020154896000015461109690919063ffffffff16565b906110f6565b90611138565b9061117a565b905061060833826111d4565b600283015581546106199085611138565b8255600183015461062a9085611138565b60018401556002830154825461064a9164e8d4a51000916105ea91611096565b60018301558254610665906001600160a01b0316338661130c565b604080518581529051869133917ff279e6a1f5e320cca91135676d9cb6e44ca8a08c0b88342bcdb1144f6511b5689181900360200190a35050505050565b6000600282815481106106b257fe5b60009182526020909120600490910201600381015490915063ffffffff1642116106dc57506107a5565b600181015461070057600301805463ffffffff19164263ffffffff161790556107a5565b60038101546000906107189063ffffffff1642610970565b905060006107576004546105ea8560030160049054906101000a900461ffff1661ffff166107516001548761109690919063ffffffff16565b90611096565b905061078761077c84600101546105ea64e8d4a510008561109690919063ffffffff16565b60028501549061117a565b60028401555050600301805463ffffffff19164263ffffffff161790555b50565b6000600282815481106107b757fe5b600091825260208083208584526003825260408085203386529092529220805460049290920290920160018101549093506107f29082611138565b60018481019190915560008581526003602090815260408083203380855292528220828155928301829055600290920155835461083b916001600160a01b03909116908361130c565b604080518281529051859133917fbb757047c2b5f3974fe26b7c10f732e7bce710b0952a71082702781e62ae05959181900360200190a350505050565b60025460005b818110156108975761088f816106a3565b60010161087e565b5050565b6108a3611092565b6000546001600160a01b039081169116146108f3576040805162461bcd60e51b8152602060048201819052602482015260008051602061183f833981519152604482015290519081900360640190fd5b600080546040516001600160a01b03909116907f8be0079c531659141344cd1fd0a4f28419497f9722a3daafe3b4186f6b6457e0908390a3600080546001600160a01b0319169055565b7f000000000000000000000000000000000000000000000000000000000000000081565b6000546001600160a01b031690565b60007f000000000000000000000000000000000000000000000000000000000000000063ffffffff1683116109cb577f000000000000000000000000000000000000000000000000000000000000000063ffffffff166109cd565b825b60055490935063ffffffff16831180610a0b57507f000000000000000000000000000000000000000000000000000000000000000063ffffffff1682105b15610a1857506000610a3f565b60055463ffffffff16821115610a3a575060055463ffffffff16829003610a3f565b508181035b92915050565b600360209081526000928352604080842090915290825290208054600182015460029092015490919083565b610a79611092565b6000546001600160a01b03908116911614610ac9576040805162461bcd60e51b8152602060048201819052602482015260008051602061183f833981519152604482015290519081900360640190fd5b8015610ad757610ad7610878565b60007f000000000000000000000000000000000000000000000000000000000000000063ffffffff164211610b32577f000000000000000000000000000000000000000000000000000000000000000063ffffffff16610b34565b425b600454909150610b489061ffff861661117a565b60049081556040805160a0810182526001600160a01b03958616815260006020820181815292820181815263ffffffff9586166060840190815261ffff998a166080850190815260028054600181018255945293517f405787fa12a823e0f2b7631cc41b3ba8828b3321ca811111fa75cd3aa3bb5ace9390960292830180546001600160a01b031916969099169590951790975591517f405787fa12a823e0f2b7631cc41b3ba8828b3321ca811111fa75cd3aa3bb5acf83015594517f405787fa12a823e0f2b7631cc41b3ba8828b3321ca811111fa75cd3aa3bb5ad082015590517f405787fa12a823e0f2b7631cc41b3ba8828b3321ca811111fa75cd3aa3bb5ad19091018054945163ffffffff19909516919092161765ffff000000001916640100000000939094169290920292909217905550565b60008060028481548110610c9057fe5b60009182526020808320878452600380835260408086206001600160a01b038a168752909352919093206002600490930290930191820154908201549193509063ffffffff1642118015610ce75750600183015415155b15610d6e576003830154600090610d049063ffffffff1642610970565b90506000610d3d6004546105ea8760030160049054906101000a900461ffff1661ffff166107516001548761109690919063ffffffff16565b9050610d69610d6286600101546105ea64e8d4a510008561109690919063ffffffff16565b849061117a565b925050505b610d9e82600201546105f684600101546105f064e8d4a510006105ea87896000015461109690919063ffffffff16565b9695505050505050565b610db0611092565b6000546001600160a01b03908116911614610e00576040805162461bcd60e51b8152602060048201819052602482015260008051602061183f833981519152604482015290519081900360640190fd5b6005805463ffffffff19811663ffffffff9182169390930116919091179055565b610e29611092565b6000546001600160a01b03908116911614610e79576040805162461bcd60e51b8152602060048201819052602482015260008051602061183f833981519152604482015290519081900360640190fd5b8015610e8757610e87610878565b610ec78261ffff166105f660028681548110610e9f57fe5b6000918252602090912060049182020160030154905490640100000000900461ffff16611138565b6004819055508160028481548110610edb57fe5b906000526020600020906004020160030160046101000a81548161ffff021916908361ffff160217905550505050565b600060028381548110610f1a57fe5b60009182526020808320868452600382526040808520338652909252922060049091029091019150610f4b846106a3565b805415610f9b576000610f8882600201546105f684600101546105f064e8d4a510006105ea8960020154896000015461109690919063ffffffff16565b9050610f9433826111d4565b6002830155505b8154610fb2906001600160a01b0316333086611363565b8054610fbe908461117a565b81556001820154610fcf908461117a565b600183015560028201548154610fef9164e8d4a51000916105ea91611096565b6001820155604080518481529051859133917f90890809c654f11d6e72a28fa60149770a0d11ec6c92319d6ceb2bb0a4ea1a159181900360200190a350505050565b611039611092565b6000546001600160a01b03908116911614611089576040805162461bcd60e51b8152602060048201819052602482015260008051602061183f833981519152604482015290519081900360640190fd5b6107a5816113c3565b3390565b6000826110a557506000610a3f565b828202828482816110b257fe5b04146110ef5760405162461bcd60e51b815260040180806020018281038252602181526020018061181e6021913960400191505060405180910390fd5b9392505050565b60006110ef83836040518060400160405280601a81526020017f536166654d6174683a206469766973696f6e206279207a65726f000000000000815250611463565b60006110ef83836040518060400160405280601e81526020017f536166654d6174683a207375627472616374696f6e206f766572666c6f770000815250611505565b6000828201838110156110ef576040805162461bcd60e51b815260206004820152601b60248201527f536166654d6174683a206164646974696f6e206f766572666c6f770000000000604482015290519081900360640190fd5b6000807f00000000000000000000000000000000000000000000000000000000000000006001600160a01b03166370a08231306040518263ffffffff1660e01b815260040180826001600160a01b0316815260200191505060206040518083038186803b15801561124457600080fd5b505afa158015611258573d6000803e3d6000fd5b505050506040513d602081101561126e57600080fd5b50519050806112805782915050610a3f565b808311156112ce576112bc6001600160a01b037f000000000000000000000000000000000000000000000000000000000000000016858361130c565b6112c68382611138565b915050610a3f565b6113026001600160a01b037f000000000000000000000000000000000000000000000000000000000000000016858561130c565b5060009392505050565b604080516001600160a01b038416602482015260448082018490528251808303909101815260649091019091526020810180516001600160e01b031663a9059cbb60e01b17905261135e90849061155f565b505050565b604080516001600160a01b0380861660248301528416604482015260648082018490528251808303909101815260849091019091526020810180516001600160e01b03166323b872dd60e01b1790526113bd90859061155f565b50505050565b6001600160a01b0381166114085760405162461bcd60e51b81526004018080602001828103825260268152602001806117f86026913960400191505060405180910390fd5b600080546040516001600160a01b03808516939216917f8be0079c531659141344cd1fd0a4f28419497f9722a3daafe3b4186f6b6457e091a3600080546001600160a01b0319166001600160a01b0392909216919091179055565b600081836114ef5760405162461bcd60e51b81526004018080602001828103825283818151815260200191508051906020019080838360005b838110156114b457818101518382015260200161149c565b50505050905090810190601f1680156114e15780820380516001836020036101000a031916815260200191505b509250505060405180910390fd5b5060008385816114fb57fe5b0495945050505050565b600081848411156115575760405162461bcd60e51b81526020600482018181528351602484015283519092839260449091019190850190808383600083156114b457818101518382015260200161149c565b505050900390565b60606115b4826040518060400160405280602081526020017f5361666542455032303a206c6f772d6c6576656c2063616c6c206661696c6564815250856001600160a01b03166116109092919063ffffffff16565b80519091501561135e578080602001905160208110156115d357600080fd5b505161135e5760405162461bcd60e51b815260040180806020018281038252602a8152602001806117ce602a913960400191505060405180910390fd5b606061161f8484600085611627565b949350505050565b606061163285611794565b611683576040805162461bcd60e51b815260206004820152601d60248201527f416464726573733a2063616c6c20746f206e6f6e2d636f6e7472616374000000604482015290519081900360640190fd5b60006060866001600160a01b031685876040518082805190602001908083835b602083106116c25780518252601f1990920191602091820191016116a3565b6001836020036101000a03801982511681845116808217855250505050505090500191505060006040518083038185875af1925050503d8060008114611724576040519150601f19603f3d011682016040523d82523d6000602084013e611729565b606091505b5091509150811561173d57915061161f9050565b80511561174d5780518082602001fd5b60405162461bcd60e51b81526020600482018181528651602484015286518793919283926044019190850190808383600083156114b457818101518382015260200161149c565b6000813f7fc5d2460186f7233c927e7db2dcc703c0e500b653ca82273b7bfad8045d85a47081811480159061161f57505015159291505056fe5361666542455032303a204245503230206f7065726174696f6e20646964206e6f7420737563636565644f776e61626c653a206e6577206f776e657220697320746865207a65726f2061646472657373536166654d6174683a206d756c7469706c69636174696f6e206f766572666c6f774f776e61626c653a2063616c6c6572206973206e6f7420746865206f776e6572a264697066735822122016bcb9a58c795efde43157a1eb5cc56a3d9265b277b4b229a990bce82d8753cd64736f6c634300060c0033",
  "linkReferences": {},
  "deployedLinkReferences": {}
}